:020000040800F2
:1000000000800120C9080008290900082909000802
:100010002909000829090008290900080000000032
:100020000000000000000000000000002909000896
:100030002909000800000000290900082909000812
:1000400029090008290900082909000829090008C8
:1000500029090008290900082909000829090008B8
:1000600029090008290900082909000829090008A8
:100070002909000829090008290900082909000898
:100080002909000829090008290900082909000888
:100090002909000829090008290900082909000878
:1000A0002909000829090008290900082909000868
:1000B0002909000829090008290900082909000858
:1000C0002909000829090008290900082909000848
:1000D0002909000829090008290900082909000838
:1000E0002909000829090008290900082909000828
:1000F0002909000829090008290900082909000818
:100100002909000829090008290900082909000807
:1001100029090008290900082909000829090008F7
:1001200029090008290900082909000829090008E7
:1001300029090008290900082909000829090008D7
:1001400029090008290900082909000829090008C7
:1001500029090008290900082909000829090008B7
:1001600029090008290900082909000829090008A7
:1001700029090008290900082909000800000000D1
:08018000290900082909000803
:10018800054645F8041C45F8082C45F8183C40F28B
:10019800B711C0F6000145F8101C4FF0000145F8F2
:1001A800141C704780B5054655F8100C004755F8E3
:1001B800080C80473A2800D05EE04FF0000245F86E
:1001C800142C40F2D710C0F6000045F8100C55F872
:1001D800080C8047002800DC4EE00A282DD00D28A6
:1001E8002BD055F8142C392894BF303837384FEABB
:1001F8000010A85440F20920C0F6000045F8100C81
:1002080055F8080C8047002800DC35E00A2830D073
:100218000D282ED055F8142C392894BF303837388B
:10022800A9580144A954013245F8142C40F2D710BA
:10023800C0F6000045F8100CC9E755F8142C002A40
:1002480017D02A442B46002013F8011B401893426C
:10025800FAD300F0FF0000280BD12846FFF797FFDC
:10026800284610F8011B55F8042C52F82120904715
:1002780002E02846FFF78BFF55F8183C5C68C3F886
:100288000CD0D4F800F055F8183CD3F80CD080BD49
:1002980080B542681AB182685161816001E04160AD
:1002A80081604FF00000486180BD01604FF000019F
:1002B80041608160704780B503465A68C2B1D16811
:1002C80011F8010B0CB41A6890470CBC013878B9C6
:1002D800D1601169013911610AD14FF00001D16073
:1002E8005069516102460AB15A6001E05A609A6049
:1002F800104680BDC90800080503000880B510F83D
:10030800011B01F00301DFE801F002673E9000F0F5
:100318005DF94FF0000140F62423C2F20003996111
:10032800D96140F62423C2F200031A6862B955F86D
:10033800182C5168516840F28F40C0F600001860D0
:1003480053608B6059609A6040F21C00C2F2000052
:1003580040F62421C2F200014A698AB940F26E527D
:10036800C0F60002CA6040F21502C0F200020A613B
:1003780080B5FFF78DFFBDE880404FF0000001E039
:100388004FF0FF3080BD40F21C00C2F2000040F682
:100398002421C2F200014A698AB940F29B52C0F690
:1003A8000002CA6040F21802C0F200020A6180B579
:1003B800FFF76EFFBDE880404FF0000001E04FF00E
:1003C800FF3042F24531C0F2010140F62423C2F267
:1003D80000039961D96180BD40F21C00C2F200009F
:1003E80040F62421C2F200014A698AB940F28352D8
:1003F800C0F60002CA6040F21802C0F200020A61A8
:1004080080B5FFF745FFBDE880404FF0000001E0F0
:100418004FF0FF3041F23421C0F2000140F62423AE
:10042800C2F200039961D96180BD40F21C00C2F29A
:10043800000040F62421C2F200014A698AB940F25C
:10044800B352C0F60002CA6040F21402C0F20002C1
:100458000A6180B5FFF71CFFBDE880404FF000003F
:1004680001E04FF0FF3000F0D3F840F62423C2F249
:1004780000039A68596851608A604FF0000018605C
:100488005860986080BDA269EAB100F0CAF840F2ED
:100498001C00C2F2000040F62421C2F200014A69A1
:1004A8008AB940F2C752C0F60002CA6040F203029D
:1004B800C0F200020A6180B5FFF7EAFEBDE880409D
:1004C8004FF0000001E04FF0FF3040F2DD42C0F68F
:1004D80000022260A2695AB1E16911B10139E161F2
:1004E80006E0A269E26140F2FF42C0F60002226023
:1004F8006468D4F800F0A269EAB100F089F840F223
:100508001C00C2F2000040F62421C2F200014A6930
:100518008AB940F2CA52C0F60002CA6040F2030229
:10052800C0F200020A6180B5FFF7B2FEBDE8804064
:100538004FF0000001E04FF0FF3040F24D52C0F69E
:1005480000022260A2695AB1E16911B10139E16181
:1005580006E0A269E26140F28F42C0F60002226022
:100568006468D4F800F0496E7374616C6C2047724B
:1005780065656E426C696E6B790A0D46617374200D
:10058800477265656E426C696E6B7920626C696E44
:100598006B0A0D536C6F7720477265656E426C6904
:1005A8006E6B7920626C696E6B0A0D52656D6F76A1
:1005B8006520477265656E426C696E6B790A0D310C
:1005C8000A0D300A0D0001600846704780B541F2F7
:1005D8000003C4F20203DA6C42F01002DA6441F25A
:1005E8000003C4F600031A6822F4403242F4803251
:1005F8001A605A6822F480725A609A6822F440326B
:1006080042F400329A60DA6822F44032DA6080BD3F
:1006180080B541F20003C4F600034FF080729A617E
:1006280080BD80B541F20003C4F600034FF4807228
:100638009A6180BD80B541F20003C4F20203DA6C0E
:1006480042F00802DA6440F60043C4F600031A6870
:1006580022F4406222F4405242F4006242F4005212
:100668001A605A6822F020025A609A6822F440629E
:1006780042F400629A60DA6822F44062DA601A6A28
:1006880022F4700242F4E0021A62DA6822F440525C
:1006980042F48052DA601A6A22F0706242F0E06234
:1006A8001A6280BD80B541F20003C4F202039A6D5C
:1006B80042F400329A6541F20003C4F202039A6BD5
:1006C80042F400329A6300BF00BF00BF00BF22F4AB
:1006D80000329A6344F20043C4F200031A6822F01D
:1006E80001021A601A6822F4805222F080521A60BD
:1006F8001A6842F001021A6040F2A1129A815A68FF
:1007080022F440525A609A6822F080029A609A68ED
:1007180022F040029A601A6842F008021A601A68C9
:1007280042F004021A60FFF785FF80BD80B544F2ED
:100738000043C4F200034FF0FF30DA6912F0200FD3
:1007480001D093F8240080BD80B544F20043C4F280
:100758000003DA6912F0800F04D083F828004FF004
:10076800010080BD4FF0FF3080BD80B544F20043EA
:10077800C4F20003DA6912F0200FFBD093F82400CA
:1007880080BD80B544F20043C4F20003DA6912F078
:10079800800FFBD083F8280080BD80B5014B83F81B
:1007A800280080BD0044004080B485B000AFF860E8
:1007B800B9607A603B604FF07E5307EE903AB0EE36
:1007C800670A1437BD465DF8047B704780B582B070
:1007D80002AF0223009301232B4A2C490220FFF782
:1007E800E3FFF0EE407A2A4BC3ED007A294BD3EDB4
:1007F800006A294B1B6807EE903AB8EE677AC6EE96
:10080800877A234BC3ED007A234B1B6807EE903A97
:10081800B8EE677A1E4BD3ED007A67EE277AFCEEC6
:10082800E77A17EE902A1D4B1A60194B93ED007A60
:100838001A4B1B6807EE903AF8EE677A77EE677AFC
:10084800134BC3ED007A134B154A1A60114BD3EDC5
:10085800007AB0EE670A1348FFF7B5FE02460E4B62
:100868001A60FFF71FFF104B104A11491148FFF794
:1008780087FC11491148FFF718FD0E48FFF792FC55
:100888000E48FFF718FDF8E734000020300000207C
:10089800500A0020280000202C0000204C0A0020CC
:1008A8000000203E440A0020000000203507000810
:1008B800FC02000860000020510700081C0000200E
:1008C800002103E0104B5B58435004310F48104B94
:1008D80042189A42F6D30F4A02E0002342F8043B3A
:1008E8000D4B9A42F9D300F00DF8DFF8300001689B
:1008F80041F470010160BFF34F8FBFF36F8FFFF7B3
:1009080065FFFEE77047000030090008000000207E
:100918004000002040000020540A002088ED00E03C
:08092800FEE7000000000000E2
:100930000000000010000020000000000000000087
:100940008F0200080000000000000020510700088E
:1009500000000000000000000000803F03000000D5
:100960000000803F00000040000040400000804048
:04000005080008C91E
:00000001FF
